tcpdump: listening on eth0, link-type EN10MB (Ethernet), capture size 65535 bytes
16:54:45.771392 IP (tos 0x0, ttl 64, id 34137, offset 0, flags [DF], proto TCP (6), length 60)
    192.133.155.21.45244 > 203.252.180.180.http: Flags [S], cksum 0xdc7a (incorrect -> 0x4c8f), seq 737488615, win 14600, options [mss 1460,sackOK,TS val 779463614 ecr 0,nop,wscale 7], length 0
	0x0000:  64e5 9944 5476 94de 8063 14ab 0800 4500
	0x0010:  003c 8559 4000 4006 d916 c085 9b15 cbfc
	0x0020:  b4b4 b0bc 0050 2bf5 2ee7 0000 0000 a002
	0x0030:  3908 dc7a 0000 0204 05b4 0402 080a 2e75
	0x0040:  abbe 0000 0000 0103 0307
16:54:45.776815 IP (tos 0x0, ttl 52, id 0, offset 0, flags [DF], proto TCP (6), length 60)
    203.252.180.180.http > 192.133.155.21.45244: Flags [S.], cksum 0xe15b (correct), seq 2108983413, ack 737488616, win 14480, options [mss 1460,sackOK,TS val 1080042768 ecr 779463614,nop,wscale 7], length 0
	0x0000:  94de 8063 14ab 64e5 9944 5476 0800 4500
	0x0010:  003c 0000 4000 3406 6a70 cbfc b4b4 c085
	0x0020:  9b15 0050 b0bc 7db4 8875 2bf5 2ee8 a012
	0x0030:  3890 e15b 0000 0204 05b4 0402 080a 4060
	0x0040:  2510 2e75 abbe 0103 0307
16:54:45.776844 IP (tos 0x0, ttl 64, id 34138, offset 0, flags [DF], proto TCP (6), length 52)
    192.133.155.21.45244 > 203.252.180.180.http: Flags [.], cksum 0xdc72 (incorrect -> 0x4843), seq 1, ack 1, win 115, options [nop,nop,TS val 779463616 ecr 1080042768], length 0
	0x0000:  64e5 9944 5476 94de 8063 14ab 0800 4500
	0x0010:  0034 855a 4000 4006 d91d c085 9b15 cbfc
	0x0020:  b4b4 b0bc 0050 2bf5 2ee8 7db4 8876 8010
	0x0030:  0073 dc72 0000 0101 080a 2e75 abc0 4060
	0x0040:  2510
16:54:45.776897 IP (tos 0x0, ttl 64, id 34139, offset 0, flags [DF], proto TCP (6), length 166)
    192.133.155.21.45244 > 203.252.180.180.http: Flags [P.], cksum 0xca71 (correct), seq 1:115, ack 1, win 115, options [nop,nop,TS val 779463616 ecr 1080042768], length 114
	0x0000:  64e5 9944 5476 94de 8063 14ab 0800 4500
	0x0010:  00a6 855b 4000 4006 d8aa c085 9b15 cbfc
	0x0020:  b4b4 b0bc 0050 2bf5 2ee8 7db4 8876 8018
	0x0030:  0073 ca71 0000 0101 080a 2e75 abc0 4060
	0x0040:  2510 4745 5420 2f20 4854 5450 2f31 2e31
	0x0050:  0d0a 5573 6572 2d41 6765 6e74 3a20 5767
	0x0060:  6574 2f31 2e31 332e 3420 286c 696e 7578
	0x0070:  2d67 6e75 290d 0a41 6363 6570 743a 202a
	0x0080:  2f2a 0d0a 486f 7374 3a20 7061 636b 6574
	0x0090:  6e67 696e 2e63 6f6d 0d0a 436f 6e6e 6563
	0x00a0:  7469 6f6e 3a20 4b65 6570 2d41 6c69 7665
	0x00b0:  0d0a 0d0a
16:54:45.781274 IP (tos 0x0, ttl 52, id 44391, offset 0, flags [DF], proto TCP (6), length 52)
    203.252.180.180.http > 192.133.155.21.45244: Flags [.], cksum 0x47d1 (correct), seq 1, ack 115, win 114, options [nop,nop,TS val 1080042769 ecr 779463616], length 0
	0x0000:  94de 8063 14ab 64e5 9944 5476 0800 4500
	0x0010:  0034 ad67 4000 3406 bd10 cbfc b4b4 c085
	0x0020:  9b15 0050 b0bc 7db4 8876 2bf5 2f5a 8010
	0x0030:  0072 47d1 0000 0101 080a 4060 2511 2e75
	0x0040:  abc0
16:54:45.783686 IP (tos 0x0, ttl 52, id 44392, offset 0, flags [DF], proto TCP (6), length 1500)
    203.252.180.180.http > 192.133.155.21.45244: Flags [.], cksum 0x1efb (correct), seq 1:1449, ack 115, win 114, options [nop,nop,TS val 1080042769 ecr 779463616], length 1448
	0x0000:  94de 8063 14ab 64e5 9944 5476 0800 4500
	0x0010:  05dc ad68 4000 3406 b767 cbfc b4b4 c085
	0x0020:  9b15 0050 b0bc 7db4 8876 2bf5 2f5a 8010
	0x0030:  0072 1efb 0000 0101 080a 4060 2511 2e75
	0x0040:  abc0 4854 5450 2f31 2e31 2032 3030 204f
	0x0050:  4b0d 0a58 2d50 6f77 6572 6564 2d42 793a
	0x0060:  2045 7870 7265 7373 0d0a 436f 6e74 656e
	0x0070:  742d 5479 7065 3a20 7465 7874 2f68 746d
	0x0080:  6c3b 2063 6861 7273 6574 3d75 7466 2d38
	0x0090:  0d0a 436f 6e74 656e 742d 4c65 6e67 7468
	0x00a0:  3a20 3236 3533 0d0a 4554 6167 3a20 222d
	0x00b0:  3936 3239 3638 3434 3722 0d0a 5365 742d
	0x00c0:  436f 6f6b 6965 3a20 636f 6e6e 6563 742e
	0x00d0:  7365 7373 3d73 2533 416a 2533 4125 3742
	0x00e0:  2537 442e 4f6e 4170 6435 6e73 5077 4164
	0x00f0:  6252 6b30 7078 4634 6435 7738 4955 496a
	0x0100:  344d 4125 3246 4d67 6530 4976 4433 6463
	0x0110:  673b 2050 6174 683d 2f3b 2048 7474 704f
	0x0120:  6e6c 790d 0a44 6174 653a 2054 7565 2c20
	0x0130:  3131 2046 6562 2032 3031 3420 3038 3a30
	0x0140:  303a 3334 2047 4d54 0d0a 436f 6e6e 6563
	0x0150:  7469 6f6e 3a20 6b65 6570 2d61 6c69 7665
	0x0160:  0d0a 0d0a 3c21 444f 4354 5950 4520 6874
	0x0170:  6d6c 3e0a 3c68 746d 6c20 6c61 6e67 3d22
	0x0180:  6b6f 223e 0a09 3c68 6561 643e 0a09 093c
	0x0190:  6d65 7461 2063 6861 7273 6574 3d22 5554
	0x01a0:  462d 3822 3e0a 0909 3c6d 6574 6120 6e61
	0x01b0:  6d65 3d22 7669 6577 706f 7274 2220 636f
	0x01c0:  6e74 656e 743d 2277 6964 7468 3d64 6576
	0x01d0:  6963 652d 7769 6474 6822 3e20 0a09 093c
	0x01e0:  7469 746c 653e 5061 636b 6574 4e67 696e
	0x01f0:  2e63 6f6d 3c2f 7469 746c 653e 0a09 093c
	0x0200:  6c69 6e6b 2068 7265 663d 2263 7373 2f62
	0x0210:  6f6f 7473 7472 6170 2e6d 696e 2e63 7373
	0x0220:  2220 7265 6c3d 2273 7479 6c65 7368 6565
	0x0230:  7422 206d 6564 6961 3d22 7363 7265 656e
	0x0240:  223e 0a09 093c 6c69 6e6b 2068 7265 663d
	0x0250:  2263 7373 2f61 7070 2e63 7373 2220 7265
	0x0260:  6c3d 2273 7479 6c65 7368 6565 7422 206d
	0x0270:  6564 6961 3d22 7363 7265 656e 223e 0a09
	0x0280:  3c2f 6865 6164 3e0a 093c 626f 6479 3e0a
	0x0290:  0909 3c68 6561 6465 7220 636c 6173 733d
	0x02a0:  226e 6176 6261 7220 6e61 7662 6172 2d69
	0x02b0:  6e76 6572 7365 206e 6176 6261 722d 6669
	0x02c0:  7865 642d 746f 7020 6273 2d64 6f63 732d
	0x02d0:  6e61 7622 2072 6f6c 653d 2262 616e 6e65
	0x02e0:  7222 3e0a 0909 093c 6469 7620 636c 6173
	0x02f0:  733d 2263 6f6e 7461 696e 6572 223e 0a09
	0x0300:  0909 093c 6469 7620 636c 6173 733d 226e
	0x0310:  6176 6261 722d 6865 6164 6572 223e 0a09
	0x0320:  0909 0909 3c62 7574 746f 6e20 636c 6173
	0x0330:  733d 226e 6176 6261 722d 746f 6767 6c65
	0x0340:  2220 7479 7065 3d22 6275 7474 6f6e 2220
	0x0350:  6461 7461 2d74 6f67 676c 653d 2263 6f6c
	0x0360:  6c61 7073 6522 2064 6174 612d 7461 7267
	0x0370:  6574 3d22 2e6e 6176 6261 722d 636f 6c6c
	0x0380:  6170 7365 223e 0a09 0909 0909 093c 7370
	0x0390:  616e 2063 6c61 7373 3d22 7372 2d6f 6e6c
	0x03a0:  7922 3e54 6f67 676c 6520 6e61 7669 6761
	0x03b0:  7469 6f6e 3c2f 7370 616e 3e0a 0909 0909
	0x03c0:  0909 3c73 7061 6e20 636c 6173 733d 2269
	0x03d0:  636f 6e2d 6261 7222 3e3c 2f73 7061 6e3e
	0x03e0:  0a09 0909 0909 093c 7370 616e 2063 6c61
	0x03f0:  7373 3d22 6963 6f6e 2d62 6172 223e 3c2f
	0x0400:  7370 616e 3e0a 0909 0909 0909 3c73 7061
	0x0410:  6e20 636c 6173 733d 2269 636f 6e2d 6261
	0x0420:  7222 3e3c 2f73 7061 6e3e 0a09 0909 0909
	0x0430:  3c2f 6275 7474 6f6e 3e0a 0909 0909 093c
	0x0440:  6120 6872 6566 3d22 2f22 2063 6c61 7373
	0x0450:  3d22 6e61 7662 6172 2d62 7261 6e64 223e
	0x0460:  0a09 0909 0909 093c 696d 6720 7372 633d
	0x0470:  2269 6d67 2f6c 6f67 6f5f 3132 382e 706e
	0x0480:  6722 2f3e 0a09 0909 0909 3c2f 613e 0a09
	0x0490:  0909 093c 2f64 6976 3e0a 0909 0909 3c6e
	0x04a0:  6176 2063 6c61 7373 3d22 636f 6c6c 6170
	0x04b0:  7365 206e 6176 6261 722d 636f 6c6c 6170
	0x04c0:  7365 2062 732d 6e61 7662 6172 2d63 6f6c
	0x04d0:  6c61 7073 6522 2072 6f6c 653d 226e 6176
	0x04e0:  6967 6174 696f 6e22 3e0a 0909 0909 093c
	0x04f0:  756c 2063 6c61 7373 3d22 6e61 7620 6e61
	0x0500:  7662 6172 2d6e 6176 223e 0a09 0909 0909
	0x0510:  093c 6c69 2063 6c61 7373 3d22 6163 7469
	0x0520:  7665 223e 0a09 0909 0909 0909 3c61 2068
	0x0530:  7265 663d 2267 6574 7469 6e67 5f73 7461
	0x0540:  7274 6564 223e 4765 7474 696e 6720 7374
	0x0550:  6172 7465 643c 2f61 3e0a 0909 0909 0909
	0x0560:  3c2f 6c69 3e0a 0909 0909 0909 3c6c 6920
	0x0570:  3e0a 0909 0909 0909 093c 6120 6872 6566
	0x0580:  3d22 7475 746f 7269 616c 223e 5475 746f
	0x0590:  7269 616c 3c2f 613e 0a09 0909 0909 093c
	0x05a0:  2f6c 693e 0a09 0909 0909 093c 6c69 203e
	0x05b0:  0a09 0909 0909 0909 3c61 2068 7265 663d
	0x05c0:  2273 646b 223e 5344 4b3c 2f61 3e0a 0909
	0x05d0:  0909 0909 3c2f 6c69 3e0a 0909 0909 0909
	0x05e0:  3c6c 6920 3e0a 0909 0909
16:54:45.783700 IP (tos 0x0, ttl 64, id 34140, offset 0, flags [DF], proto TCP (6), length 52)
    192.133.155.21.45244 > 203.252.180.180.http: Flags [.], cksum 0xdc72 (incorrect -> 0x4210), seq 115, ack 1449, win 137, options [nop,nop,TS val 779463618 ecr 1080042769], length 0
	0x0000:  64e5 9944 5476 94de 8063 14ab 0800 4500
	0x0010:  0034 855c 4000 4006 d91b c085 9b15 cbfc
	0x0020:  b4b4 b0bc 0050 2bf5 2f5a 7db4 8e1e 8010
	0x0030:  0089 dc72 0000 0101 080a 2e75 abc2 4060
	0x0040:  2511
16:54:45.783800 IP (tos 0x0, ttl 52, id 44393, offset 0, flags [DF], proto TCP (6), length 1547)
    203.252.180.180.http > 192.133.155.21.45244: Flags [P.], cksum 0xe249 (incorrect -> 0xb22c), seq 1449:2944, ack 115, win 114, options [nop,nop,TS val 1080042769 ecr 779463616], length 1495
	0x0000:  94de 8063 14ab 64e5 9944 5476 0800 4500
	0x0010:  060b ad69 4000 3406 b737 cbfc b4b4 c085
	0x0020:  9b15 0050 b0bc 7db4 8e1e 2bf5 2f5a 8018
	0x0030:  0072 e249 0000 0101 080a 4060 2511 2e75
	0x0040:  abc0 0909 093c 6120 6872 6566 3d22 7072
	0x0050:  6f64 7563 7422 3e50 726f 6475 6374 3c2f
	0x0060:  613e 0a09 0909 0909 093c 2f6c 693e 0a09
	0x0070:  0909 0909 093c 6c69 203e 0a09 0909 0909
	0x0080:  0909 3c61 2068 7265 663d 2263 6f6e 7461
	0x0090:  6374 223e 436f 6e74 6163 743c 2f61 3e0a
	0x00a0:  0909 0909 0909 3c2f 6c69 3e0a 0909 0909
	0x00b0:  093c 2f75 6c3e 0a09 0909 093c 2f6e 6176
	0x00c0:  3e0a 0909 093c 2f64 6976 3e0a 0909 3c2f
	0x00d0:  6865 6164 6572 3e0a 0909 0a09 090a 3c64
	0x00e0:  6976 2063 6c61 7373 3d22 6a75 6d62 6f74
	0x00f0:  726f 6e22 3e0a 093c 6469 7620 636c 6173
	0x0100:  733d 2263 6f6e 7461 696e 6572 223e 0a09
	0x0110:  093c 6832 3e0a 0909 5061 636b 6574 4e67
	0x0120:  696e 3a20 416e 2044 5049 2065 6e67 696e
	0x0130:  6520 6261 7365 6420 6f6e 2078 3836 0a09
	0x0140:  093c 6272 2f3e 0a09 093c 736d 616c 6c3e
	0x0150:  5b70 d395 6bc9 aa74 2065 6e64 c6b7 c9aa
	0x0160:  6e5d 3c2f 736d 616c 6c3e 0a09 093c 2f68
	0x0170:  323e 0a09 093c 703e 0a09 0969 6e64 6578
	0x0180:  2e70 6163 6b65 746e 6769 6e0a 0909 3c2f
	0x0190:  703e 0a09 3c2f 6469 763e 0a3c 2f64 6976
	0x01a0:  3e0a 0a3c 6469 7620 636c 6173 733d 2270
	0x01b0:  6167 652d 6865 6164 6572 223e 0a09 3c68
	0x01c0:  3120 6964 3d22 6b65 795f 6661 6374 7322
	0x01d0:  3e4b 6579 2046 6163 7473 3c2f 6831 3e0a
	0x01e0:  3c2f 6469 763e 0a0a 3c75 6c3e 0a09 3c6c
	0x01f0:  693e 696e 6465 782e 6b65 7966 6163 7473
	0x0200:  5b30 5d3c 2f6c 693e 0a09 3c6c 693e 696e
	0x0210:  6465 782e 6b65 7966 6163 7473 5b31 5d3c
	0x0220:  2f6c 693e 0a09 3c6c 693e 696e 6465 782e
	0x0230:  6b65 7966 6163 7473 5b32 5d3c 2f6c 693e
	0x0240:  0a09 3c6c 693e 696e 6465 782e 6b65 7966
	0x0250:  6163 7473 5b33 5d3c 2f6c 693e 0a09 3c6c
	0x0260:  693e 696e 6465 782e 6b65 7966 6163 7473
	0x0270:  5b34 5d3c 2f6c 693e 0a0a 3c2f 756c 3e0a
	0x0280:  0a3c 6469 7620 636c 6173 733d 2270 6167
	0x0290:  652d 6865 6164 6572 223e 0a09 3c68 3120
	0x02a0:  6964 3d22 6e65 745f 6170 7022 3e50 6163
	0x02b0:  6b65 744e 6769 6e20 4e65 7441 7070 3c2f
	0x02c0:  6831 3e0a 0969 6e64 6578 2e6e 6574 6170
	0x02d0:  700a 3c2f 6469 763e 0a0a 3c70 3e0a 093c
	0x02e0:  696d 6720 7372 633d 2269 6d67 2f6b 6572
	0x02f0:  6e65 6c2e 706e 6722 2073 7479 6c65 3d22
	0x0300:  7769 6474 683a 2033 3530 7078 3b20 6469
	0x0310:  7370 6c61 793a 2062 6c6f 636b 3b22 2f3e
	0x0320:  0a09 0a3c 2f70 3e0a 0a3c 6469 7620 636c
	0x0330:  6173 733d 2270 6167 652d 6865 6164 6572
	0x0340:  223e 0a09 3c68 3120 6964 3d22 7364 6b22
	0x0350:  3e50 6163 6b65 744e 6769 6e20 5344 4b3c
	0x0360:  2f68 313e 0a3c 2f64 6976 3e0a 0a3c 703e
	0x0370:  0a09 696e 6465 782e 7364 6b0a 3c2f 703e
	0x0380:  0a0a 3c64 6976 2063 6c61 7373 3d22 7061
	0x0390:  6765 2d68 6561 6465 7222 3e0a 093c 6831
	0x03a0:  2069 643d 2270 6f72 7466 6f6c 696f 223e
	0x03b0:  5061 636b 6574 4e67 696e 2050 6f72 7466
	0x03c0:  6f6c 696f 3c2f 6831 3e0a 3c2f 6469 763e
	0x03d0:  0a0a 3c75 6c3e 0a09 3c6c 693e 696e 6465
	0x03e0:  782e 706f 7274 666f 6c69 6f5b 305d 203c
	0x03f0:  7370 616e 2073 7479 6c65 3d22 666c 6f61
	0x0400:  743a 2072 6967 6874 223e 696e 6465 782e
	0x0410:  7265 6c65 6173 655b 305d 3c2f 7370 616e
	0x0420:  3e3c 2f6c 693e 0a09 3c6c 693e 696e 6465
	0x0430:  782e 706f 7274 666f 6c69 6f5b 315d 203c
	0x0440:  7370 616e 2073 7479 6c65 3d22 666c 6f61
	0x0450:  743a 2072 6967 6874 223e 696e 6465 782e
	0x0460:  7265 6c65 6173 655b 315d 3c2f 7370 616e
	0x0470:  3e3c 2f6c 693e 0a09 3c6c 693e 696e 6465
	0x0480:  782e 706f 7274 666f 6c69 6f5b 325d 203c
	0x0490:  7370 616e 2073 7479 6c65 3d22 666c 6f61
	0x04a0:  743a 2072 6967 6874 223e 696e 6465 782e
	0x04b0:  7265 6c65 6173 655b 325d 3c2f 7370 616e
	0x04c0:  3e3c 2f6c 693e 0a09 3c6c 693e 696e 6465
	0x04d0:  782e 706f 7274 666f 6c69 6f5b 335d 203c
	0x04e0:  7370 616e 2073 7479 6c65 3d22 666c 6f61
	0x04f0:  743a 2072 6967 6874 223e 696e 6465 782e
	0x0500:  7265 6c65 6173 655b 335d 3c2f 7370 616e
	0x0510:  3e3c 2f6c 693e 0a3c 2f75 6c3e 0a0a 0909
	0x0520:  0a09 093c 666f 6f74 6572 3e0a 0909 093c
	0x0530:  703e 2663 6f70 793b 2050 6163 6b65 744e
	0x0540:  6769 6e2e 636f 6d2c 2032 3031 333c 2f70
	0x0550:  3e0a 0909 3c2f 666f 6f74 6572 3e0a 0909
	0x0560:  0a09 093c 212d 2d20 7363 7269 7074 202d
	0x0570:  2d3e 0a09 093c 7363 7269 7074 2073 7263
	0x0580:  3d22 6874 7470 3a2f 2f63 6f64 652e 6a71
	0x0590:  7565 7279 2e63 6f6d 2f6a 7175 6572 792e
	0x05a0:  6a73 223e 3c2f 7363 7269 7074 3e0a 0909
	0x05b0:  3c73 6372 6970 7420 7372 633d 226a 732f
	0x05c0:  6a71 7565 7279 2e74 6d70 6c2e 6a73 223e
	0x05d0:  3c2f 7363 7269 7074 3e0a 0909 3c73 6372
	0x05e0:  6970 7420 7372 633d 226a 732f 626f 6f74
	0x05f0:  7374 7261 702e 6d69 6e2e 6a73 223e 3c2f
	0x0600:  7363 7269 7074 3e0a 093c 2f62 6f64 793e
	0x0610:  0a3c 2f68 746d 6c3e 0a
16:54:45.783808 IP (tos 0x0, ttl 64, id 34141, offset 0, flags [DF], proto TCP (6), length 52)
    192.133.155.21.45244 > 203.252.180.180.http: Flags [.], cksum 0xdc72 (incorrect -> 0x3c21), seq 115, ack 2944, win 161, options [nop,nop,TS val 779463618 ecr 1080042769], length 0
	0x0000:  64e5 9944 5476 94de 8063 14ab 0800 4500
	0x0010:  0034 855d 4000 4006 d91a c085 9b15 cbfc
	0x0020:  b4b4 b0bc 0050 2bf5 2f5a 7db4 93f5 8010
	0x0030:  00a1 dc72 0000 0101 080a 2e75 abc2 4060
	0x0040:  2511
16:54:45.784460 IP (tos 0x0, ttl 64, id 34142, offset 0, flags [DF], proto TCP (6), length 52)
    192.133.155.21.45244 > 203.252.180.180.http: Flags [F.], cksum 0xdc72 (incorrect -> 0x3c20), seq 115, ack 2944, win 161, options [nop,nop,TS val 779463618 ecr 1080042769], length 0
	0x0000:  64e5 9944 5476 94de 8063 14ab 0800 4500
	0x0010:  0034 855e 4000 4006 d919 c085 9b15 cbfc
	0x0020:  b4b4 b0bc 0050 2bf5 2f5a 7db4 93f5 8011
	0x0030:  00a1 dc72 0000 0101 080a 2e75 abc2 4060
	0x0040:  2511
16:54:45.787826 IP (tos 0x0, ttl 52, id 44395, offset 0, flags [DF], proto TCP (6), length 52)
    203.252.180.180.http > 192.133.155.21.45244: Flags [F.], cksum 0x3c4c (correct), seq 2944, ack 116, win 114, options [nop,nop,TS val 1080042771 ecr 779463618], length 0
	0x0000:  94de 8063 14ab 64e5 9944 5476 0800 4500
	0x0010:  0034 ad6b 4000 3406 bd0c cbfc b4b4 c085
	0x0020:  9b15 0050 b0bc 7db4 93f5 2bf5 2f5b 8011
	0x0030:  0072 3c4c 0000 0101 080a 4060 2513 2e75
	0x0040:  abc2
16:54:45.787845 IP (tos 0x0, ttl 64, id 34143, offset 0, flags [DF], proto TCP (6), length 52)
    192.133.155.21.45244 > 203.252.180.180.http: Flags [.], cksum 0xdc72 (incorrect -> 0x3c1c), seq 116, ack 2945, win 161, options [nop,nop,TS val 779463619 ecr 1080042771], length 0
	0x0000:  64e5 9944 5476 94de 8063 14ab 0800 4500
	0x0010:  0034 855f 4000 4006 d918 c085 9b15 cbfc
	0x0020:  b4b4 b0bc 0050 2bf5 2f5b 7db4 93f6 8010
	0x0030:  00a1 dc72 0000 0101 080a 2e75 abc3 4060
	0x0040:  2513
